:0600000000F06AEF00F0C1
:10000800F3CFD5F0F6CFD6F0F7CFD7F03DEF0CF021
:10001800D8CF1CF0E8CF1DF0E0CF1EF0E1CF1FF0E5
:10002800E2CF20F0D9CF21F0DACF22F0F3CF23F0BE
:10003800F4CF24F0F6CF25F0F7CF26F0F8CF27F04D
:10004800F5CF28F0F0A003D0F090C7EC0DF0F2A4A3
:1000580003D0F294FAEC06F09EAA08D09E9A00010A
:100068004B9C4BAC03D0AE5000014C809EBC9DAC69
:1000780003D09E9C6CEC00F0F0A203D0F092BEEC92
:100088000EF0A1AC03D0A19C77EC0EF0A1AA03D08E
:10009800A19A6DEC0EF028C0F5FF27C0F8FF26C026
:1000A800F7FF25C0F6FF24C0F4FF23C0F3FF22C0EA
:1000B800DAFF21C0D9FF20C0E2FF1FC0E1FF1EC048
:1000C800E0FF1DC0E8FF1CC0D8FF100050EF0DF086
:1000D800C2CF12F07C0E121651E1ABEC0EF001C04B
:1000E80003F002C004F03F0E056EF1EC05F003C00A
:1000F80018F004C019F01950800A800F140ED8B4F3
:10010800185C07E31950800A7D0FC10ED8B4185C3B
:1001180003E300016A8B02D000016A9B0A0E126E8B
:100128005F0E1824136E000E1920146E13C001F010
:1001380014C002F0036A02BE03061D0E046E010E0F
:10014800056E000E066A6FEC0AF01228156E04D0D0
:10015800D890033202320132152EFAD701C060F06E
:1001680002C061F0D8906131136E6031126E125086
:100178006E6F4B84000169A1A18A1200C2CF12F0F0
:100188007C0E12161250040A14E1ABEC0EF0023485
:1001980002320132023402320132015000016F6F23
:1001A8001F0E6F5D03E269858C82120069958C923F
:1001B8001200C2CF12F07C0E12161250080A02E189
:1001C8006EEF07F0C2CF12F07C0E12161250100A12
:1001D8001AE1ABEC0EF001C003F002C004F000011C
:1001E800BB0E056E95EC08F0043404320332043477
:1001F800043203320350716F180E715D02E28C8A6B
:1002080012008C9A1200C2CF12F07C0E12161250F5
:100218000C0A49E1ABEC0EF001C003F002C004F097
:100228000001A30E056E95EC08F003C033F004C07E
:1002380034F033C012F034C013F0D89013321232B5
:10024800D890133212321250846FD8903430136E13
:100258003330126E1250876F0A0E126E280E332436
:10026800136E000E3420146E13C001F014C002F097
:10027800036A800E046E020E056E000E066A6FECAD
:100288000AF01228156E04D0D890033202320132D7
:10029800152EFAD701C035F002C036F035C079F016
:1002A80036C07AF01200C2CF12F07C0E121612502D
:1002B800140A29E1ABEC0EF001C033F002C034F0AF
:1002C800CC0E335C000E345805E20C0E335C000E85
:1002D800345805E27F0E0001706F6A8D7F0CFF0EA7
:1002E8003314126E000E3414136EC30E1224F66EFD
:1002F800FD0E1320F76EF86A000EF82208000001C0
:10030800F5CF70F01200C2CF12F07C0E1216125008
:10031800640AD8A41200ABEC0EF001C003F002C0CE
:1003280004F00001970E056EF1EC05F003C01AF019
:1003380004C01BF01B50800AF36E800EF35CFE0EA7
:10034800D8B41A5C03E21B6AFE0E1A6E1B50800AB0
:100358007E0FFD0ED8B41A5C04E3020E1B6EFC0E71
:100368001A6E020E126E13681AC014F01BC015F034
:10037800125014261350152215341530176E1430E8
:10038800166E16500001836F1200000169A1C9D0D2
:100398006F516F5169AF06D0800E8207825D0EE201
:1003A800699F0CD069A509D020EE72F0380EDF6481
:1003B80004D0736B746B698B1200699B7FA149D061
:1003C8006051355C0101016F00016151365801012E
:1003D800026F0251800AF36E800EF35C010ED8B4EE
:1003E800015D03E2026B400E016F000177C0DAF095
:1003F80078C0DBF0DC6B60C0DDF061C0DEF0DF6B85
:10040800DDEC0AF0DBC0DAF0DCC0DBF0DC6BDAC074
:1004180003F1DBC004F1DCC005F103C1E6F004C15F
:10042800E7F00001E56BE5C0DAF0E6C0DBF0E7C015
:10043800DCF001C1DDF002C1DEF0DF6BDEBFDF07FB
:1004480038EC08F0DAC003F1DBC004F1DCC005F1D8
:1004580034D077C0DAF078C0DBF0DC6B60C0DDF058
:1004680061C0DEF0DF6BDDEC0AF0DBC0DAF0DCC087
:10047800DBF0DC6BDAC003F1DBC004F1DCC005F1B2
:10048800070EE56F8251DA6FDB6BDC6B03C1DDF0C1
:1004980004C1DEF005C1DFF0DDEC0AF0E529E66F06
:1004A80004D0D890DC33DB33DA33E62FFAD7DAC05E
:1004B80003F1DBC004F1DCC005F169A769B902D01A
:1004C80069AF1DD0070EE56F8251DA6FDB6BDC6B0D
:1004D80003C1DDF004C1DEF005C1DFF0DDEC0AF098
:1004E800E529E66F04D0D890DC33DB33DA33E62F26
:1004F800FAD7DAC003F1DBC004F1DCC005F169B753
:1005080002D069AD02D08C8401D08C9469A502D048
:100518008C8201D08C9269A302D08C8835D08C98BB
:1005280033D0699D698F699B826920EE6FF09F0EB9
:10053800DF6405D00101036B046B056B25D06D5199
:100548006D03F4CFF3FFF46AF3CFDAF0F4CFDBF006
:10055800DC6B780EDD6F690EDE6F000EDF6BDDEC95
:100568000AF0DBC0DAF0DCC0DBF0DC6BB80EDA25B1
:100578000101036F0B0E0001DB210101046F000E66
:100588000001DC210101056F00017FAF03D0736B0F
:10059800746B120003C173F004C174F012000101FE
:1005A800076F0001E5C0DAF0E6C0DBF0DC6BDBBF0B
:1005B800DC07400EDD6F010EDE6F000EDF6BDDEC39
:1005C8000AF0DBC0DAF0DCC0DBF0DC6BDAC0E5F0A7
:1005D800DBC0E6F0C00EE527FF0EE623E5C000F11C
:1005E800E6C001F1050E0101026F01350133003348
:1005F800022FFBD700510D6F0001E5511F0B0101C0
:10060800096FC30E0725F66EF76AFE0EF722F86A21
:10061800000EF8220800F5CF0AF10DAF0DD0096BD6
:10062800C30E0A25F66EF76AFB0EF722F86A000E6B
:10063800F8220800F55012000D51800A790F16E3D0
:10064800006B010E016F0A51026F036B0051022704
:1006580001510323C30E0225F66EFB0E0321F76E2C
:10066800F86A000EF8220800F55012000DC100F1DA
:10067800016B00BF0107050ED89000370137E82E3F
:10068800FBD7C30E026FFB0E036F0A510227000E41
:100698000323005102270151032302C1F6FF03C1BE
:1006A800F7FFF86A0800F5CF0BF10DC100F1016BF7
:1006B80000BF0107050ED89000370137E82EFBD799
:1006C800C30E026FFB0E036F005102270151032373
:1006D8000A510227000E0323200E0227000E0323CF
:1006E80002C1F6FF03C1F7FFF86A0800F5CF0CF165
:1006F8000C510B5D21E20951006F016B0B510CC1CC
:1007080002F1036B025F000E035B00510203F3CF9B
:1007180004F1F4CF05F10303F35005270151020357
:10072800F3500527050E066F053505330433062FEC
:10073800FBD704510B2520D00951006F016B0C51D8
:100748000BC102F1036B025F000E035B0051020351
:10075800F3CF04F1F4CF05F10303F350052701515A
:100768000203F3500527050E066F053505330433DC
:10077800062FFBD704510C25086F085112000451AD
:100788003F0B126F04C108F105C109F1060E0A6F8B
:10079800D890093308330A2FFBD70851136F135128
:1007A800086F096BD8900837093706C10AF107C1E5
:1007B8000BF108510A2709510B23020E0A27000ED4
:1007C8000B230AC1F6FF0BC1F7FFF86A0900F5CF42
:1007D8000CF10900F5CF0DF11351020D06C10EF110
:1007E80007C10FF1F3500E27F4500F230EC1F6FF87
:1007F8000FC1F7FFF86A0900F5CF10F10900F5CF2E
:1008080011F10C51105D0D5111593DE21351020DBA
:1008180006C108F107C109F1F3500827F45009236C
:1008280008C1F6FF09C1F7FFF86A0900F5CFE5F03E
:100838000A00F5CFE6F0010113510A6F0B6BD8904F
:100848000A370B3706C10CF107C10DF10A510C2705
:100858000B510D23020E0C27000E0D230CC1F6FFC1
:100868000DC1F7FFF86A09000001F5CFE7F00A00AB
:10087800F5CFE8F012C1E9F0A7EC0AF0E5C004F101
:10088800E6C005F112001351086F096BD8900837BC
:10089800093706C10AF107C10BF108510A270951A6
:1008A8000B23020E0A27000E0B230AC1F6FF0BC109
:1008B800F7FFF86A0900F5CFE5F00A00F5CFE6F092
:1008C80001011351020D06C10CF107C10DF1F350DE
:1008D8000C27F4500D230CC1F6FF0DC1F7FFF86A81
:1008E8000900F5CFE7F00A00F5CFE8F012513F080C
:1008F8000001E96FA7EC0AF0E5C004F1E6C005F1D4
:100908001200300ED36E040ED26E8D6A8C6A896A1C
:100918008A6A8B6A030E966E9268270E936E800E13
:10092800946E200E956E0F013B693C0E3A6F396F3D
:100938003C692F0E386F616AF18E8C808C828C94A2
:100948008C98D76A600ED66ED60ED56EC10ECC6E58
:10095800030ECD6ECD90CF6ACE6A9E903F0EBB6ED1
:100968007C0EBA6E9D92B46A370EB16EB36AB26AE3
:10097800A092080EB86E900EAB6E240EAC6E220ECE
:10098800AF6E060EB06E820EAF6E9D98040E44ECEC
:100998000EF0EF0E0001DA6FFF0E13EC0BF0000102
:1009A800DB6B2D0EDA6F71EC0DF0D08E9F84A28078
:1009B8007C809F80F1949F9C9F989F9AF08CF09EDA
:1009C800A29AA29AF19CF18AF198F294F28A9D80F7
:1009D8009D8A9D84A0807A80A08AA08A8B0E0001BF
:1009E800DA6FFC0EDB6FEF0E08EC0DF0650E626F30
:1009F8008A0E626501D006D06251D96EDA6ADF6A62
:100A0800622BF6D7D0A66A81D0B002D06A83D08094
:100A1800AF0E656F666B100E676F260E686F650EFA
:100A2800626F7F95E70EF66EFF0EF76EF86A0900A3
:100A3800F5CF75F00A00F5CF76F0BAEC0EF03D6A06
:100A480000018581A50E6D6F396A3A6AD58E376ABD
:100A5800386A32EC0EF0030E0001746FE80E736F03
:100A6800F282130E786F880E776FF28CF28EF2880E
:100A7800F086880C85EC04F0374A382A4BA404D059
:100A880000014B94C9EC01F04BBCACA217D000019B
:100A9800685120EE66F0DF6206D0666B8A6B4B9C6D
:100AA800650E626F0BD0AB986251D96EDA6ADF506F
:100AB800AD6E8A51AD248A6F622B662BACA202D030
:100AC8004BACAB88ABA204D0AB98AB88AC9AAC8AE1
:100AD8004BAE48D0F2983BC016F13CC017F1F288F3
:100AE8004B9E01011751161105E10001726B6991C6
:100AF8007F952ED0E00E0001DA6F930EDB6F040EA7
:100B0800DC6F16C1DDF017C1DEF0DF6BDEEC0BF039
:100B1800DAC018F1DBC019F1000E0101185D010EF1
:100B2800195903E30001726902D018C172F0050E69
:100B38000101185D010E195903E300017FAF7F8F92
:100B4800FA0E0101185D000E195903E200017FBF7A
:100B58007F9F100E0001725D04E26991698F7F9F8B
:100B680001D069814BA00FD000014B907DEC06F0BD
:100B780097EC0CF0010E0001DB6F1A0EDA6F725160
:100B8800D7EC07F0886F4BA604D000014B960EEC0B
:100B98000CF04CA405D000014C940A0E55EC0EF054
:100BA8004CB04C904CA204D000014C92BBEC09F024
:100BB8004BAA62D74B9A3B0E0001636504D0636B66
:100BC8007B4B7C2B01D0632B040E646504D0646BD3
:100BD80000014B8251D7642B4FD70550D96EDA6A82
:100BE800040ED9260550E16EE26A060EE126DECF34
:100BF800E6FFDDCFE5FF0550D96EDA6A020ED92689
:100C08000550E16EE26A040EE126DECFE6FFDDCF95
:100C1800E5FF0550D96EDA6A0550E16EE26A020E08
:100C2800E126DECFE6FFDDCFE5FF0550D96EDA6AB3
:100C380003C0DEFF04C0DDFF0550D96EDA6A0A0E74
:100C4800D926DECF06F0DDCF07F0040E065C000ED5
:100C580007580DE20550D96EDA6A0A0ED926DE2A3F
:100C6800000EDD2203C003F004C004F0000C0550A0
:100C7800D96EDA6A040ED926DECF06F0DDCF07F08A
:100C88000550D96EDA6A060ED926DECF08F0DDCF18
:100C980009F00650082607500922D89009300B6E33
:100CA80008300A6E0550D96EDA6A020ED926DECFF0
:100CB80006F0DDCF07F00A5006260B500722D89021
:100CC80007300B6E06300A6E0550D96EDA6ADECF31
:100CD80006F0DDCF07F00A5006260B500722D89001
:100CE80007300B6E06300A6E0AC003F00BC004F022
:100CF800120000017FA13DD020EE71F0960EDF6456
:100D08000CD0F30EF66EFF0EF76EF86A0900F5CFF9
:100D180075F00A00F5CF76F01200570E715D0DE2FE
:100D2800EB0EF66EFF0EF76E000EF86E0900F5CFAB
:100D380075F00A00F5CF76F0120071510101146FB9
:100D4800156BD89014371537D89014371537A40E6B
:100D58001425046FFE0E1521056FFF0E076FEB0EAD
:100D6800066FC3EC03F0010104C175F005C176F00C
:100D7800120020EE71F0960EDF640CD0E90EF66ECC
:100D8800FF0EF76EF86A0900F5CF75F00A00F5CF87
:100D980076F01200570E715D0DE2E10EF66EFF0E51
:100DA800F76E000EF86E0900F5CF75F00A00F5CF62
:100DB80076F0120071510101146F156BD890143739
:100DC8001537D89014371537A40E1425046FFE0E66
:100DD8001521056FFF0E076FE10E066FC3EC03F0D8
:100DE800010104C175F005C176F01200D76A600EE2
:100DF800D66E30502F1006E1306A640E2F6E000157
:100E08004B8C03D02F06D8A03006400E395C060E56
:100E18003A5806E3396A3A6A8C90B0EC0DF002D081
:100E2800394A3A2A2E50800AF36E800EF35C010E7E
:100E3800D8B42D5C05E24B862E6A030E2D6E03D0C6
:100E48002D06D8A02E062A50800AF36E800EF35C79
:100E5800010ED8B4295C05E24C822A6A0F0E296E6D
:100E680003D02906D8A02A063250800AF36E800ED5
:100E7800F35C010ED8B4315C06E24B8A030E326E85
:100E8800100E316E03D03106D8A032062C50800ADD
:100E9800F36E800EF35C010ED8B42B5C05E24B8038
:100EA8002C6A320E2B6E03D02B06D8A02C0637C026
:100EB80003F038C004F00001AF0E056E95EC08F0A1
:100EC800043404300B6E03300A6E0A50846F376A9C
:100ED800386A1200ABEC0EF001C003F002C004F057
:100EE80000018B0E056E95EC08F003C010F004C0ED
:100EF80011F0D50E105C010E115832E3D30E105CC0
:100F0800030E11582DE26A992C0E0A6EFE0E0B6E16
:100F180010C00CF011C00DF00A500C260B500D2219
:100F2800D8900D300F6E0C300E6E0E506C6F2C0E6C
:100F38000A6EFE0E0B6E10C00CF011C00DF00A50B8
:100F48000C260B500D22000E0C5C010E0D5803E30D
:100F58006D6B699312001050D3086D6F698312008E
:100F68006AA969A102D069936D6B6AA969B103D0B6
:100F78006983A40E6D6F6A89D40E105C010E115836
:100F880002E26C6B01D06C694BA207D04B92000156
:100F98006D51D8A469A101D06D0700016D671200D9
:100FA80069B169931200E36FE3510F0BE56FE33901
:100FB8000F0BE46FE451DA25D96E000EDB21DA6EEF
:100FC800DF50E66FE451DA25DC6F000EDB21DD6FC0
:100FD800DC29D96E000EDD21DA6EDF50E76FE751AC
:100FE800E65D21E2E551DC6FDD6BE651E7C0DEF03E
:100FF800DF6BDE5F000EDF5BDC51DE03F3CFE0F07A
:10100800F4CFE1F0DF03F350E127DD51DE03F350C5
:10101800E127040EE26FE135E133E033E22FFBD73D
:10102800E051E6251200E551DC6FDD6BE751E6C0C3
:10103800DEF0DF6BDE5F000EDF5BDC51DE03F3CF3B
:10104800E0F0F4CFE1F0DF03F350E127DD51DE03F8
:10105800F350E127040EE26FE135E133E033E22F8C
:10106800FBD7E051E7251200E16BDF51800A800FC2
:1010780005E1000EDE5D02E1000EDD5D08E2DF1F26
:10108800DE1FDD6D000EDE23DF23010EE16FDC5174
:10109800800A800F05E1000EDB5D02E1000EDA5DDB
:1010A80008E2DC1FDB1FDA6D000EDB23DC23010EF8
:1010B800E11BE26BE36BE46BDD51DE11DF1122E033
:1010C800010EE06F05D0D890DD37DE37DF37E02B33
:1010D800DFAFF9D7D890E237E337E437DD51DA5D8F
:1010E800DE51DB59DF51DC5907E3DD51DA5FDE51B0
:1010F800DB5BDF51DC5BE281D890DF33DE33DD334D
:10110800E02FE8D7E15106E0E41FE31FE26D000E8F
:10111800E323E423E2C0DAF0E3C0DBF0E4C0DCF070
:1011280012000550D96EDA6A080ED926DF50030B73
:10113800086E0850020D0550F324D96EDA6A03C010
:10114800DEFF04C0DDFF0828030B066E076A0550A2
:10115800D96EDA6A080ED92606C0DEFF07C0DDFFA1
:101168000550D96EDA6A0A0ED926DECF06F0DDCF31
:1011780007F0040E065C000E07580DE20550D96E04
:10118800DA6A0A0ED926DE2A000EDD2203C003F031
:1011980004C004F0000C036A046A096A0950020DCD
:1011A8000550F324D96EDA6ADE500326DD50042296
:1011B800092A030E0964F2D703C006F004C007F039
:1011C800D89007320632D8900732063206C003F0AC
:1011D80007C004F0030CD36F050EF66EF76A300EE5
:1011E800F86E0800F5CFD0F0D0A11BD066CFD0F0B4
:1011F8000F0ED017D0510A0A02E0939A12D0050EAA
:10120800F66EF76A300EF86E0800F5CFD0F0D0A56C
:1012180008D066CFD0F00F0ED017D0510A0AD8A444
:101228009690CEC05EFFCFC0D0F0D0C0D1F0D26BC8
:10123800D1510F015F6F0001D3510F0B0F015D6F8B
:101248003F0E4917D3C0D0F0300E0001D017D89008
:10125800D037D890D0350F0149130001D3AF120011
:101268007B907A8012000D6E050EF66EF76A300ECE
:10127800F86E0800F5CF0AF00AA01BD066CF0AF076
:101288000F0E0A160A500A0A02E0939A12D0050EA7
:10129800F66EF76A300EF86E0800F5CF0AF00AA469
:1012A80008D066CF0AF00F0E0A160A500A0AD8A408
:1012B800969008C05EFF09C00AF00AC00BF00C6ADD
:1012C8000B500F015F6F0D500F0B5D6F3F0E4917ED
:1012D8000DC00AF0300E0A16D8900A36D8900A3493
:1012E80049130DAE12007B907A801200D06F050E64
:1012F800F66EF76A300EF86E0800F5CFCDF0CDA186
:101308001BD066CFCDF00F0ECD17CD510A0A02E0E3
:10131800949212D0050EF66EF76A300EF86E080039
:10132800F5CFCDF0CDA508D066CFCDF00F0ECD17F7
:10133800CD510A0AD8A49396CBC067FFCCC0CDF094
:10134800CDC0CEF0CF6BCE51686ED0510F0B666E0C
:10135800E70E0F0149170001D890D031180B0F0183
:1013680049130001D0AF1200A190A0801200C2B2B0
:1013780012009E9C23D0000169B105D0830E62EC57
:101388000EF03E2A2AD03E2A1200870E62EC0EF09A
:10139800F8D78B0E62EC0EF0F4D7930E62EC0EF0D9
:1013A800F0D78F0E62EC0EF0ECD7970E62EC0EF0D1
:1013B800E8D7E70E62EC0EF03E6A0FD03E50DBE055
:1013C800010AE3E0030AE5E0010AE7E0070AE9E0C9
:1013D800010AEBE0030AEDE0EFD7750EE82EFED721
:1013E80000F09E9CBAEF0EF0010E8BAA000E0001D1
:1013F800C96F010E8BA8000ECA6F010E8BA6000ED6
:10140800CB6F010E8BA4000ECC6F8BB0010E8BB28C
:10141800010E010EE8A0000ECC11CB11CA11C911A2
:10142800E8A010D01FEC0EF0D8A012007F91130E88
:10143800786F880E776F8B908B928B948B968B98A6
:101448008B9A880C1FEC0EF006E37F91130E786FD1
:10145800880E776F880C7F81270E786F100E776F54
:10146800100C00017FA125D073C0D3F074C0D4F054
:10147800FD0ED35D3F0ED45904E33F0ED46FFD0E2D
:10148800D36F8BA412D08B94D3C0D1F0D4C0D2F038
:10149800D890D137D237D890D137D2378BEC0EF0DD
:1014A800D151C725CB6FD2510DD08B948B96F8EFC5
:1014B80009F08BA00CD08B908BEC0EF07351C725E4
:1014C800CB6F7451C821CC6FDA0E2CEF0DF08B90D6
:1014D8008B92F8EF09F001500402F3CF09F0F4CF32
:1014E8000AF00B6A01500502090E076E000E086E1D
:1014F8000728D96E000E0820DA6EF350DE26F45065
:10150800DD2202500402090E076E000E086E07283D
:10151800D96E000E0820DA6EF350DE26F450DD2274
:1015280006500102F3500B2602500502F3500B2619
:1015380003500402F3500B2609C001F00AC002F060
:101548000BC003F01200060E0101006F0001E7C096
:1015580001F1E8C002F1E5510101015F0001E65126
:101568000101025B000101C1DAF002C1DBF0DC6BB2
:10157800DBBFDC07E9513F0BDD6FDE6BDF6BDDECBA
:101588000AF001010029036F05D00001DC35DC33C6
:10159800DB33DA330101032FF8D7DAC0EAF0DBC016
:1015A800EBF00001EA51E525E56FEB51E621E66F26
:1015B8001200DA51DD03F3CFE2F0F4CFE3F0E46B8D
:1015C800DA51DE03E20EE06FE16BE029D96E000E1E
:1015D800E121DA6EF350DE26F450DD22DB51DD0323
:1015E800E20EE06FE16BE029D96E000EE121DA6EC0
:1015F800F350DE26F450DD22DF51DA03F350E427FE
:10160800DB51DE03F350E427DC51DD03F350E4271C
:10161800E2C0DAF0E3C0DBF0E4C0DCF01200DC6F1B
:101628000C0E0F01546FF30E48170001DA41E8421F
:101638003F0B0C0B0F014813929848CFDBF00C0EB0
:101648000001DB1705E1BA94DCC0BBFFBA840C0CBF
:1016580048CFDBF00C0EDB17DB51040A06E10F0163
:101668005195DCC052FF5185120048CFDBF00C0EBB
:10167800DB17DB51080AD8A412000F014A95DCC019
:101688004BFF4A851200000120EE6BF0D10EDF649B
:1016980001D0D10C6B2B010E8AB6000EDA6F010E49
:1016A8008AB8000EDA15E8A002D08A881200010E66
:1016B8008AA8000EDA6F010E8AB6000EDA15E8A0C5
:1016C80002D08A861200010E8AA8000E8AA6000E91
:1016D800E8A002D08A981200010E8AA6000EDA6FDE
:1016E800010E8AB8000EDA15E8B08A961200650E67
:1016F800735D000E7459D8B07FBF9CEF0EF07FA1C8
:101708001ED03DA00ED08BEC0EF07551C725CB6FC7
:101718007651C821CC6FDA0E2CEC0DF08B848B86B9
:1017280012008BEC0EF07551C725CB6F7651C8218E
:10173800CC6FDA0E7AEC09F08B888B8A120075C0B0
:10174800CBF076C0CCF0CA0E2CEC0DF08B808B82DF
:101758001200070E6B5DD8A012006B07010E8AB647
:10176800000EDA6F010E8AB8000EDA15E8A002D072
:101778008A861200010E8AA6000EDA6F010E8AB858
:10178800000EDA15E8A002D08A881200010E8AA895
:10179800000E8AA6000EE8A002D08A961200010E5A
:1017A8008AA8000EDA6F010E8AB6000EDA15E8B0C4
:1017B8008A981200E06BE16BE26BDD51DE11DF11FC
:1017C80022E0010EE36F05D0D890DD37DE37DF3732
:1017D800E32BDFAFF9D7D890E037E137E237DD51B7
:1017E800DA5DDE51DB59DF51DC5907E3DD51DA5FA1
:1017F800DE51DB5BDF51DC5BE081D890DF33DE3329
:10180800DD33E32FE8D7E0C0DAF0E1C0DBF0E2C077
:10181800DCF012004BA81CD000016D516D03F4CF11
:10182800F3FFF46AF3BEF468F350DB6FDB51550D38
:10183800F4CFF3FFF46AF3BEF468F350190FDC6FCA
:10184800DC516B5D02E247EF0BF000014B98120090
:10185800000169A1120069A505D03B0E6D5D7251AA
:101868007251120020EE6BF01A0EDF641A0C47EF6B
:101878000BF0F8CFD8F0F5CFD9F0F2A203D0F2925E
:1018880091EC0DF09EA003D09E90A4EC0EF0F0A079
:1018980003D0F090DEEC0DF09EA403D09E94B7EC3C
:1018A8000EF0A1A003D0A190B4EC0EF07BA003D061
:1018B8007B90B0EC0EF0D9C0F5FFD8C0F8FFD7C0C8
:1018C800F7FFD6C0F6FFD5C0F3FF110000017FA1D6
:1018D8009CEF0EF073C0D3F074C0D4F0FD0ED35D4E
:1018E8003F0ED45904E33F0ED46FFD0ED36F8BA87F
:1018F80016D08B98D3C0D1F0D4C0D2F0D890D137BD
:10190800D237D890D137D2378BEC0EF0D151C725CA
:10191800CB6FD251C821CC6FDA0E7AEF09F08B98D1
:101928008B9AF8EF09F060C0E5F061C0E6F00001BD
:101938007251D3EC02F00001E96FEA6B0A0EE95D1F
:10194800000EEA5903E2EA6B0A0EE96FE9C086F075
:10195800E9C0E7F0EAC0E8F0D890E737E837D89070
:10196800E737E837020EE725DA6F000EE821DB6F6C
:1019780071EF0DF0056A066A045003101BE0010EB2
:10198800076E04D0D89003360436072A04AEFAD777
:10199800D890053606360350015C0450025805E31A
:1019A8000350015E0450025A0580D8900432033275
:1019B800072EEED705C001F006C002F01200CC6B6E
:1019C800CD6BCA51C9111BE0010ECB6F04D0D89062
:1019D800C937CA37CB2BCAAFFAD7D890CC37CD374F
:1019E800C951C75DCA51C85905E3C951C75FCA5132
:1019F800C85BCC81D890CA33C933CB2FEED7CCC0C3
:101A0800C7F0CDC0C8F01200DE6FC26AC16AC06AF2
:101A1800DA517C0BC26EDBC0C1FFDEC0DCF0D890AF
:101A2800DC37D890DC37380EDC17DEC0DDF0DD3B64
:101A38000F0EDD17070EDD17DE51800BDD11DC11EF
:101A4800C06EDAAF03D09E9C9D8CF28CC2801200CF
:101A5800D06FCBC0BEFFCCC0CDF0CDC0CEF0CF6B29
:101A6800CE51BF6ED0510F0BBD6EFC0E0F01491742
:101A78000001D0390F0B030B0F0149130001D0AF40
:101A880002D09E949D84BDCFCDF00F0ECD17CD51C1
:101A98000A0AD8A49494120000EE60F0670EEE6A69
:101AA800E806FDE14C6A4B6A00EE29F0220EEE6A68
:101AB800E806FDE1280EF66E1D0EF76E000EF86EB4
:101AC80001EE1AF010EE10F00900F5CFEEFFE55028
:101AD800E150FAE100013EEF05F0DAC0DCF0DBC0CE
:101AE800DDF0060ED890DC37DD37E82EFBD7DCC0FA
:101AF800DEF0DDC0DFF0DFC055FFDEC0DCF0D890DF
:101B0800DC33D890DC33300EDC170F015451CF0B87
:101B18000001DC110F01546F12009D90CD90CECFC3
:101B28003BF0CFCF3CF0CE6ACF6ACD80396A3A6AB3
:101B38008C809E909D804B8E3D2A040E3D6402D081
:101B4800010E3D6E000169B102D08C9601D08C86E1
:101B58007BEC0BF0A18C12000001726B6991698F0C
:101B68004B9E69976999699B699D8C947F958B9029
:101B78008B928B948B968B988B9A8C9669B16A878B
:101B880000014B881200000169B102D08C86120056
:101B98003BC001F03CC002F0046A0A0E036EBEECC2
:101BA8000CF0CE500124086ECF500220096ECA0EE8
:101BB80037EF09F0000169B102D08C8612003BC0F2
:101BC800C7F03CC0C8F0CA6B0A0EC96FE3EC0CF052
:101BD800CE50C725CE6FCF50C821CF6FCA0EEFEFBA
:101BE80008F00001726B6991698F4B9E699769993A
:101BF800699B699D8C947F958B908B928B948B9627
:101C08008B988B9A8C9669B16A8700014B88120071
:101C180008D0150EDC6FC60EE82EFED7DC2FFCD7D9
:101C280000D00001DA07D8A0DB07DA29D8B4DB290D
:101C3800D8B41200EED76051355CC76F6151365881
:101C4800C86FC851800AF36E800EF35C6E0ED8B46C
:101C5800C75D02E2D8801200D8901200D20EDD6F64
:101C6800D20E6B6FDB6B030EDA6F0CEC0EF0ADEC83
:101C78000BF0DD07DD67F4D76B6B00014B881200B2
:101C88000001DA6FDA51FB0B0F014A6F4C6B7E943F
:101C98000001DAAF02D07D8401D07D940F014A851E
:101CA80012000001DB6FDB516B5D02E247EF0BF0C6
:101CB8006B51DB5DD8A0ADEC0BF012000001DB6FBF
:101CC800DBC0DAF07C0EDA17C250830BDA11C26E71
:101CD8001200870E81EC0EF09E9C6A0EE82EFED74D
:101CE80000D0BCEF0EF0830E81EC0EF09E9C6A0EC5
:101CF800E82EFED700D0BCEF0EF0026E02C001F055
:101D08007C0E0116C250830B0110C26E1200B2CFB6
:101D1800C9F0B3CFCAF0C9C0C7F0CAC0C8F0120032
:101D2800B3B3B3B3B3B3B3B3B3B3B3B3B3B3B3B37B
:101D38008B908B928B948B968B988B9AF8EF09F0FB
:101D4800CD903B6A3C6ACE6ACF6AF5EF0DF0C4507D
:101D5800026EC350016E12000F015D6B8C9612006B
:101D6800666A6AEF0CF0BD6A35EF0AF0C2821200AB
:061D7800C28212001200FD
:10FBC200000909090A101112141415181C20232601
:10FBD2002C333A4143464A4E5254565959595D5F65
:10FBE200F90C0C0C0D11171819243034383C424909
:10FBF2004C4F505254575B5F6365676A6B6D707010
:10FC0200FF161A1E22212A2F35393D41454A5056E8
:10FC1200595D5F616366696D7174787C7D7F8181F6
:10FC22006E191E23283033373C4045494D525A63E2
:10FC3200666A6C6F7173767A7E81848788898B8C11
:10FC42007F20252A2F34393D42464B50555A626A4D
:10FC52006C6F757B7D7F82868A8D90939495979742
:10FC62000023292F353944484C5054595E646C7432
:10FC7200777A8087898B8E9296999C9FA0A1A2A267
:10FC820000272C323840464C52565B60666C737AC1
:10FC92007E8289909294979A9EA1A4A8A8A9AAABC1
:10FCA20000292D313642474F575C61666C7279806C
:10FCB20083878E9697999C9FA3A6AAAEAEAFAFAD4F
:10FCC200002B2F34394247505A60676C71777C8120
:10FCD200858A9096999DA0A3A7AAAEB2B2B3B3B4F7
:10FCE20000272C323842454F5A60676C72787C810B
:10FCF200858A9096999DA0A3A7AAAEB2B2B3B3B4D7
:10FD0200002A2E33384246505A60676C72787C81E2
:10FD1200858A9096999DA0A3A7AAADB1B2B3B3B4B8
:10FD220000282D32384247505A60676C72787C81C5
:10FD3200858A9096999DA0A3A7AAADB1B2B3B3B498
:10FD420000272C32384247505A60676C72787C81A7
:10FD5200858A9096999DA0A3A7AAADB1B2B3B3B478
:10FD620000272C32384248515A60676C72787C8185
:10FD7200858A9096999DA0A3A7AAADB1B2B3B3B458
:10FD820000272C32384249515A60676C72787C8164
:10FD9200858A9096999DA0A3A7AAADB1B2B3B3B438
:10FDA20000272C3238434A525A60676C72787C8141
:10FDB200858A90969A9EA1A4A7AAADB1B2B3B3B414
:10FDC200005E59544F4A453F3A35302B26211F1EBB
:10FDD2001D1C1A19181616161515151414141413B9
:10FDE20013131212121111111010100F0F0F0E0E09
:10FDF2000E0D0D0D0C0C0B0B0A0A0A090908080757
:10FE020007060605050504040303020201010000BA
:10FE1200FFFFFFFEFEFDFDFCFCFBFBFAFAFAF9F91F
:10FE2200F8F8F8F8F8F7F7F7F7F7F7F7F7F7F7F75B
:10FE3200F7F6F6F6F6F6F6F6F6F6F6F6F6F6F5F561
:10FE4200F5F5F5F5F5F5F5F5F5F5F4F4F4F4F4F466
:10FE5200F4F4F4F4F4F4F4F3F3F3F3F3F3F3F3F369
:10FE6200F3F3F2F1F0EFEEEEECEBEAE8E7E6E5E3CE
:10FE7200E1DEDCE3E1DEDCCFCCCAC7C5C4C3C1C06E
:10FE8200BFBEBDBCBBBAB9B7B6B4B3B2B0AFAFAE0A
:10FE9200AEADACACABAAAAA9A8A8A7A6A6A5A5A4D4
:10FEA200A3A3A2A1A1A09F9F9E9E9D9C9C9B9A9A68
:10FEB2009998989796969595949393929191908FFD
:10FEC2008F000000000000000000000000000000A1
:10FED20000000101010102020203030303030404FF
:10FEE20004040405050505030606060606060606BD
:10FEF200070707070808080809090909090909097C
:10FF02000A0A0A0A0A0A0A0A0B0B0B0B0B0B0B0B47
:10FF12000C0C0C0C0C0C0C0C0D0D0D0D0D0D0D0D17
:10FF22000E0E0E0E0E0E0E0E0E0E0E0E0E0E0E0EEF
:10FF32000F0F0F0F0F0F0F0F0F0F0F0F10101010CB
:10FF4200101010101111111111111111121212129F
:10FF52001212121212121212131313131313131377
:10FF6200131313131414141414141414151515154F
:10FF7200151515151616161616161616171717171F
:10FF820017171717181818181818181819191919EF
:10FF920019191919191919191A1A1A1A1A1A1A1AC7
:10FFA2001A1A1A1A1A1A1A1A1B1B1B1B1B1B1B1BA7
:10FFB2001B1C1C1C1C1C1C1C1C1C1C1C1C1C1C1C80
:10FFC2001C90015802EE028403B0044006D0076080
:10FFD200091C0CAC0D04105C121815D417A41F6078
:10FFE200099A06AA05E204F203E015CC10AC0DB89A
:0EFFF2000B600914001E002800E093040000BC
:020000040030CA
:0E000000FF33173CFFBF81FF0FC00FE00F4022
:00000001FF
